:1000000038C2000053C2000051C200004FC20000BD
:100010004DC200004BC2000049C2000047C20000B0
:1000200045C2000043C200000C94441E0C94111FF2
:100030000C94DA183BC2000039C2000037C200003D
:1000400035C2000033C2000031C200002FC20000E0
:100050002DC200000C94511929C2000027C20000D3
:1000600025C2000023C2000021C200001FC2000000
:100070001DC200001BC2000019C2000017C2000010
:1000800015C2000013C2000011C200000FC2000020
:100090000DC200000BC2000009C2000007C2000030
:1000A00005C2000003C2000001C200002B001400C2
:1000B0001A00080015001700000000001C001800BE
:1000C0000C00120013002A0039000400160007007B
:1000D00009000A00000000000B000D000E000F00D8
:1000E00033003400E1001D001B000600190005006C
:1000F000D100D2001100100036003700380028006F
:100100002900E000E200E300C1522C002C002C008A
:100110002C00C2525000510052004F0035001E0208
:100120001F022002210222020000000023022402FA
:100130002502260227024C0001003A003B003C0049
:100140003D003E00000000003F002D022E022F0265
:1001500030023302010040004100420043004400ED
:10016000010001004500D3003102310038020100D6
:100170000100010001000100000001000100010078
:100180000100C052AE00AA00A900AE0035021E0058
:100190001F00200021002200000000002300240096
:1001A00025002600270001000100010001000100D8
:1001B000010001000000000001002D002E002F00B2
:1001C00030003402010001000100010001000100C3
:1001D00001000100010001003602370201000100A8
:1001E0000100010001000100C052010001000100F6
:1001F00001000000010001000100010044454255DA
:10020000473A2064697361626C65642E0A00444554
:100210004255473A20656E61626C65642E0A006C37
:1002200065645F7461736B3A20253032580A004F61
:100230006E6573686F743A206163746976653A20FD
:1002400025640A000A002530313662003A20002574
:10025000303258000A722F63203031323334353651
:100260003738394142434445460A00290A0025757A
:10027000002F002575005D280025640020002564FE
:1002800000200025640020002564007C0025303219
:1002900058006D6F7573656B6579205B62746E7C59
:1002A000782079207620685D287265702F61636CF4
:1002B000293A205B000A002530325820006B65790E
:1002C000626F6172645F7265706F72743A2025307C
:1002D0003258207C200073757370656E64696E6798
:1002E000206B6579626F6172640D0A005B575D0077
:1002F0005B535D005B525D005B445D005B435D00F2
:10030000100348006F00720069007A006F006E00F1
:1003100000002003530074006500760065006E0045
:1003200020004B006100720072006D0061006E00E1
:100330006E0000000403090409025400030100A038
:10034000FA09040000010301010009211101000163
:10035000224400070581030800010904010001038C
:10036000000000092111010001227B000705820322
:10037000200001090402000103000000092111010D
:10038000000122150007058303200001120100026D
:1003900000000008EDFE000001000102000106312E
:1003A000FF0974A1010975150026FF009520750845
:1003B0008102C005010902A10185020901A1000510
:1003C0000919012908150025019508750181020503
:1003D00001093009311581257F95027508810609CB
:1003E000381581257F950175088106050C0A3802AC
:1003F0001581257F950175088106C0C0050109801A
:10040000A101850319012AB700150126B70095013E
:1004100075108100C0050C0901A101850419012A8C
:10042000A002150126A002950175108100C00501EA
:100430000906A101050719E029E71500250195081E
:10044000750181029501750881010507190029FFD1
:10045000150026FF00950675088100050819012979
:10046000051500250195057501910295017503910A
:1004700001C011241FBECFEFDAE0DEBFCDBF11E017
:10048000A0E0B1E0E8E5F3E402C005900D92AC3ADB
:10049000B107D9F722E0ACEAB1E001C01D92A6385D
:1004A000B207E1F70E9424120C946B21A9CDFF93AF
:1004B000EF93E091AC01F091AD01309709F009950F
:1004C000EF91FF910895FC018591803011F0EFDFED
:1004D000FBCF0895FF27E0E230E247FF0CC04195D3
:1004E00097FF09C0EDE26095709580959095611D2C
:1004F000711D811D911D27FF02C0219530E350E23F
:10050000AA27660F771F881F991FAA1FA41710F02C
:10051000A41B63955A95A9F7AA3008F0A95FA05DBE
:10052000AF93F395611571058105910541F7ED32A2
:1005300011F4EF93F395F21718F43F93F395FBCF73
:100540008F91B5DFFA95E1F70895E991F9918591D9
:10055000803021F0853219F0AADFF9CF089520E02C
:10056000E89455915532C1F3503311F46894559184
:100570005A3348F4505390F3220F022E220F220FC9
:10058000200D250FF4CF0EF42195899199915336C2
:1005900019F3533729F1533559F1BC0188279927AD
:1005A000E8945C3621F48991999168945591543678
:1005B00039F446EF7EF077FF0DC08FEF9FEF0AC052
:1005C00055374AE039F0583540E121F0523642E0E3
:1005D00009F00895FF93EF937DDFEF91FF91B7CF7F
:1005E000FF93EF93FC0181918030B9F360DFFBCF83
:1005F000FF93EF9368DFF1CFDF93CF93CDB7DEB7F3
:100600002596A3DFCF91DF9108958330B8F464304D
:10061000A8F44E3098F450E09EE0699F400D511DC3
:100620001124FA0198E3899FE00DF11D1124EE0FCA
:10063000FF1FE455FF4F85919491089581E090E06C
:100640000895E3CF089581E00895FDCF0895FBCF8D
:10065000089581E00895F7CF0895F5CF0895FDCF6F
:10066000089508950895FDCF089508950895A6E08A
:10067000B0E0EDE3F3E00C94DE2049835A839E83DF
:100680003091B30189819A81311117C03E813323A2
:1006900089F0222379F0D2D5182F682F89819A8189
:1006A000ACD569817A81812F0E94370F2696E3E0CD
:1006B0000C94FA20B3D5182FF4CFC0D569817A8174
:1006C000F3CFFC01262F40815181628173818481A7
:1006D0009581CDCFCF93DF93EC0161E0F2DFBE01D6
:1006E000B4DF882349F061E0CE01EBDFBE01AFDF6C
:1006F0008170DF91CF91089580E0FACF0F931F931F
:10070000CF93DF93EC0160E0DCDF8C01BE01AADF58
:10071000BE01C801A8DFDF91CF911F910F9108950D
:1007200021E030E0A90102C0440F551F8A95E2F78D
:10073000CA019CC4CF93C82F81E090E00C2E02C068
:10074000880F991F0A94E2F70E943C0D8C2FE8DF76
:10075000CF91089581E00895FDCF0895FBCF0895CE
:10076000CF93C82F3BD48C2FF7DF8C2FF7DF2FEFE1
:1007700084E39CE0215080409040E1F700C00000FD
:10078000CF91089581E0ECDF0C94751980E0E8DFEB
:100790000C9486190F931F93CF93DF938C0161E024
:1007A00090DFEC01B80157DF811106C080E0DF91D6
:1007B000CF911F910F910895B801CE0150DF88238A
:1007C000A9F3B801CE010E94B616882379F3B801C7
:1007D000CE010E947912882349F3B801CE010E940C
:1007E0005312882319F3B801CE010E9435108823D3
:1007F000E9F2F8018581882369F0C330FCE7DF075F
:1008000089F158F4C130ECE7DE0771F1B0F4C1159D
:10081000DC4789F0C8011DDFCACFCB35ECE7DE0726
:1008200041F1CC35FCE7DF0709F1CA35DC4791F728
:100830000E94050DEFCFA6DFB9CF90913C02892F22
:100840008E7F90FF816080933C0280FF08C08EE025
:1008500092E09F938F93D0DE0F900F90A7CF8CEFF5
:1008600091E0F7CF0E94340D91DFA0CF0E94FD0CE4
:10087000D1CF0E94070DCECFF8DE0E94B2183AC049
:100880003BD0F4DE0C94B618829590E09C01220FC8
:10089000331F220F331F2C7C95958795959587954F
:1008A0008373282B30E0C901880F991F8A7A359508
:1008B00027952575822B0895CF93DF93D92FE4DFF9
:1008C000C82F8D2FE1DF9C2FDF91CF91089581E01C
:1008D00008950895CF93DF93D82FF9DFC82F882389
:1008E00011F08D2FF6DF8C2FDF91CF9108950895B1
:1008F000F1CF089580E0FCCF0E94FE16F9CFCF9390
:100900000E94FE16C82F8091AE018C17F1F0C093A3
:10091000AE010E9445196093AF017093B0018093BE
:10092000B1019093B20180913C028570853059F4F9
:100930001F92CF938FE192E09F938F935DDE0F9094
:100940000F900F900F908C2FD3DFCF910895ADE0D3
:10095000B0E0EDEAF4E00C94DF20488759876A871D
:100960007B878C879D8791118BD71F8286E0FE0144
:100970003896DE01119601900D928A95E1F78D81EE
:1009800081110CC029813A814B815C816D817E810E
:100990008F81C6D62D96E2E00C94FB20CE01019605
:1009A00099DE8111EFCFF6CFFC012481213019F4BB
:1009B0008081918174C40895662321F00E94D3132D
:1009C0000C949E140E942514FBCFCF93C82F88232C
:1009D000B9F08238B9F40E940D1781FD11C089E386
:1009E0000E940F18B5D72FEF87EE93E0215080407B
:1009F0009040E1F700C0000089E30E941518A8D7D5
:100A0000CF910895833899F40E940D1780FDF8CF97
:100A100083E50E940F189CD72FEF81EE94E02150C0
:100A200080409040E1F700C0000083E5E6CF8438C5
:100A300099F40E940D1782FDE3CF87E40E940F18FE
:100A400087D72FEF81EE94E0215080409040E1F76E
:100A500000C0000087E4D1CF8CEF8C0F813A68F49E
:100A60008C2F0E94D417882321F08C2F0E941518F8
:100A70006FD78C2F0E940F18C2CF80E28C0F883066
:100A800040F4C77081E001C0880FCA95EAF7DBD651
:100A9000B6CFEBE5EC0FE33040F4F0E0E25BFE4F65
:100AA000808190E00E947117ABCFE8E5EC0FEB314D
:100AB00050F4F0E0EE0FFF1FE85EFE4F8081918161
:100AC0000E9498179DCF83E38C0F833108F098CF55
:100AD00061E08C2F71DF94CF882309F44DC08238F8
:100AE00061F40E940D1781FF47C089E30E940F182F
:100AF0002FD789E30E9415182BC7833851F40E9421
:100B00000D1780FF39C083E50E940F1821D783E5B8
:100B1000F1CF843851F40E940D1782FF2DC087E475
:100B20000E940F1815D787E4E5CF9CEF980F913AF4
:100B300008F390E2980F983048F4877091E001C074
:100B4000990F8A95EAF7892F84D6D6CF9BE5980F1F
:100B5000933020F490E080E00C94711798E5980FA2
:100B60009B3120F490E080E00C94981793E3980F69
:100B7000933110F460E020CF08951F93CF93DF935B
:100B8000182FEB0122DF209731F4812FA5DFDF91B1
:100B9000CF911F9108958FE99FE00197F1F700C071
:100BA00000002197F0CF70E060E0893311F460E538
:100BB00070E0E3CF882311F046D6CAC60895882393
:100BC00011F047D6C5C60895B0E0A0E0EAEEF5E022
:100BD0000C94D8206C01D62FC72FFC0115810681FB
:100BE00002950F7026D6E82E8823E9F0E12E112316
:100BF000D1F08C2F807F803461F080E28D0F8830BF
:100C0000F8F08C2F807E803221F4D230C8F000239F
:100C1000B9F08091640282FF13C082E0B5D609D694
:100C200091E0E82EE926BC2EB2949FE0B922FBE0C9
:100C3000FB1580F1EB2DF0E0E359FE4D0C94C9203B
:100C4000E12CF1CF0C2F0F70C07F11F00295007FC7
:100C5000112381F0002349F080E28D0F883010F0DD
:100C6000D11105C0802FEFD573D68D2F40C0802FB6
:100C7000FAD5FACF8D2F30DF002361F080E28D0F9F
:100C8000883010F0D11103C0802FE3D502C0802F2F
:100C9000F0D55ED6EB2DE850FF0B349708F04CC131
:100CA0000E94FE1625DECDB7DEB7E9E00C94F420F5
:100CB0002C2F2F70F22EC07FC03219F0F29480EFEB
:100CC000F822DD2341F0D13081F1112309F439C03C
:100CD0000023C9F0CACF8091640282FD10C01123A5
:100CE00041F0FF2019F08F2DAED532D680E06DDEB9
:100CF000D1CF80E0F1DEFF2069F28F2DC6CF112326
:100D000059F0011103C08F2D55DFC4CF013009F018
:100D1000C1CF8F2DC9D5BECF0111BCCF8F2D4FDFD5
:100D20008F2DCDD58F2DB2D5B5CF112321F0063023
:100D300008F0B0CFE8CF053008F0ACCF8F2D3FDF03
:100D4000A9CF0023D9F3D93349F43FEF87EE93E0DD
:100D5000315080409040E1F700C000008D2FBCDE94
:100D600099CF8C2F86958695837069F0813009F034
:100D700091CF8D2F9C2F9370111102C080E090E0D5
:100D80000E94981787CF8D2F9C2F9370111102C04E
:100D900080E090E00E9471177DCF612F8D2F0CDED7
:100DA00079CF8C2F837081F5111174CF4D2F42951F
:100DB00046954770440F440F2D2F2F7030E0042EBE
:100DC00002C0220F331F0A94E2F790E080E0D4FFC4
:100DD00009C08FE090E002C0880F991F4A95E2F7A2
:100DE00080959095C695C695C370822B932BC23083
:100DF00039F040F4C13011F042D14CCF39D14ACF53
:100E000045D148CF33D146CF8695112311F08C2F91
:100E10008170882309F43ECF4D2F42954695477047
:100E2000440F440F2D2F2F7030E0042E02C0220FEC
:100E3000331F0A94E2F790E080E0D4FF09C08FE00E
:100E400090E002C0880F991F4A95E2F7809590952F
:100E5000C695C695C370822B932BC23039F040F4EF
:100E6000C13011F067D116CF5ED114CF6AD112CF45
:100E70001AD110CFCF70112321F08C2F28D18D2FB4
:100E800043CF8D2F9CDE8C2F30D104CFD23F39F150
:100E900060F4D03FB9F0D13F81F0112309F43CC098
:100EA0000111E3CE8C2F8F711EC0D33FF1F0D43FE0
:100EB000A1F78091640282FD20C08C2F8F711123D5
:100EC00019F311C0112339F0053008F0E3CE8C2F4F
:100ED0008F711BD1DFCE063008F0DCCEF8CF8C2F1F
:100EE0008F711111D1CFF3D0D5CE112321F08C2FDA
:100EF0008F71E3D0CFCEDED0CDCE112329F063E0C9
:100F00008C2F8F712AD5C6CE81E03ED5023008F4F1
:100F1000C1CE82E039D5BECE002359F0D93309F0D5
:100F20001DCFEFEFF7EE23E0E150F0402040E1F776
:100F300013CF8C2F8F71A8CFEE2009F4B4CE75D4C7
:100F400080FDB1CEF60115826AD4C1D0C60117D09A
:100F500066D4CBD0A8CE0F931F93CF93DF93EC0131
:100F6000688179818D81A4D18C01F2D07ED0B801C5
:100F7000CE012ADEDF91CF911F910F910895CF937B
:100F8000DF93EC018C81882381F0CE0103DC811199
:100F90000FC04FD4882349F08D81882331F0809190
:100FA000640282FF02C082E0EFD4DF91CF91089506
:100FB000CE01D1DFCE01A2DBF8CF90E080E00E942D
:100FC000711790E080E00E9498175AD4C1D40E9413
:100FD00051150C949E140E941B18EFCF41D4FBCFE7
:100FE00092959F70963091F058F4925F9F70923076
:100FF00058F4803F19F030F4883E30F481E00895D1
:101000009A5FF4CF843FD1F380E00895883EB0F337
:10101000813FD1F7F3CFFC012481222321F080818D
:1010200091813DD1DDCF80E00895A6E0B0E0EBE115
:10103000F8E00C94DF202696E2E00C94FB20A7E079
:10104000B0E0E5E2F8E00C94DF202796E2E00C94B3
:10105000FB200895FECF0895FDCF0895FADFFCDF51
:101060009093D3018093D20108950895F7CF089506
:101070002091D2013091D301822B932BEFCF20917D
:10108000D2013091D30182239323E8CF2091D20162
:101090003091D30182279327E1CFDBCF0895FDCF95
:1010A0000895D7CF0895FDDFFADF9093D1018093A3
:1010B000D001089590E080E0F6CF21E030E0A90172
:1010C00002C0440F551F8A95E2F7CA01ECCF21E018
:1010D00030E002C0220F331F8A95E2F78091D001E1
:1010E0009091D101822B932BDECF21E030E002C022
:1010F000220F331F8A95E2F7209530958091D00119
:101100009091D10182239323CECF21E030E002C021
:10111000220F331F8A95E2F78091D0019091D1017F
:1011200082279327C0CF2091D0013091D101822B0B
:10113000932BB9CF2091D0013091D10182239323F9
:10114000B2CF2091D0013091D10182279327ABCF2C
:101150000895262F277091E001C0990F2A95EAF78C
:1011600023E0769567952A95E1F7660F771F660F5E
:10117000771FFA01E60FF71F50E040E0682F70E09C
:101180008191DF0111979B01042E02C036952795AE
:101190000A94E2F7217021952827292328272C93E8
:1011A0004F5F5F4F4430510559F70895A82FA7703E
:1011B00023E0969587952A95E1F7880F991F880F68
:1011C000991FFB01E80FF91F50E040E080E02191FA
:1011D00030E00A2E02C0369527950A94E2F7217076
:1011E0003327042E01C0220F0A94EAF7822B4F5FA7
:1011F0005F4F4430510559F70895262F943068F415
:101200008E3058F4682F70E08EE0989F600D711D4D
:10121000112444EB51E0822F9CCF0895292F943064
:1012200058F48E3048F490E064EB71E03EE0239F88
:10123000800D911D1124BACF80E00895B0E0A0E0A8
:10124000E4E2F9E00C94D8207C010091D0011091E7
:10125000D1018091D2019091D301082B192BCFE0BD
:10126000D0E0CC24C394D12CBC2EC6010C2E02C0DD
:10127000880F991F0A94E2F780239123892B49F460
:10128000219790F7B12C8B2DCDB7DEB7E9E00C9408
:10129000F420B7018C2FF6D5019791F3F4CFCF93BB
:1012A000DF93EC01CBDFBE01EDD5DF91CF91089547
:1012B0001F93CF93DF93EB019091B301992331F00A
:1012C000CB01EDDFDF91CF911F910895882351F07D
:1012D000CB01B4DF182F682FCE018FDFBE01812F25
:1012E000D1D5F0CFCB019ADF182FF8CF1F93CF9332
:1012F000DF93C091D40117E08091D5018C1304C015
:10130000DF91CF911F910895D0E01C9FF0011D9FA8
:10131000F00D1124EA52FE4F208131814281538128
:101320006481758186818BDE2196C770E5CF20911F
:101330000E0230910F024091100250911102609103
:101340001202709113028091140279CECF93DF9331
:1013500080911402807F09F04BC080911302882392
:1013600009F446C0E091D4015091D501C0910F021B
:10137000D0910E02609110027091110247E05E1749
:10138000B9F18E2F90E0E49FF0011124EA52FE4F54
:101390002481222381F1489FF001499FF00D1124FF
:1013A000DF01AA52BE4F11962C9111972C1323C026
:1013B0002C912D1320C015962C91159721111BC02F
:1013C00012962D913C91261B370B283C310598F441
:1013D000809114028F70806180931402E452FE4F5A
:1013E00080818F70806180838EE092E0C8DD7EDF37
:1013F000DF91CF910895FC013196E770C0CF482F5F
:101400002091D4019091D50157E0291302C080E0CA
:10141000089530E0529FF001539FF00D1124EA52DD
:10142000FE4F8181681306C08081481303C0858107
:101430008111EECF2F5F3F4F2770E7CFA4E1B0E0DF
:10144000E4E2FAE00C94D5208C0186E0F801DE019C
:101450001F9601900D928A95E1F7F8018481E5804D
:101460009EE0A92E92E0B92E9091120291111AC01D
:101470008823A9F0EE2089F0C801CDDDF82E88235D
:1014800061F087E0F801D50101900D928A95E1F7AE
:10149000C5018ADA5BDF4BDF59C0C80170DDFF246C
:1014A000F39454C0C080D18082809380F090130266
:1014B0002091100230911102A401421B530BFF2016
:1014C00009F4E9C0483C510508F09CC0882309F4A0
:1014D0003DC090910F0280911402282F207F09F0C7
:1014E00056C09D1114C090910E02C91210C0E11097
:1014F00048C08F7080618093140219DF8EE092E003
:101500003EDD80911402F8018683F12C1FC0E110AA
:1015100038C06D2D8C2D73DF6D2D8C2D70DFE82E76
:101520008111F3CFCF86D88A8F859889B8DE292F8D
:1015300022952F70243078F49F702230A0F09923E8
:10154000B1F0F8019681907F91F4FE2C8F2D649676
:10155000ECE00C94F1202A5F2F70223060F0C8017B
:101560000EDDEF2CF2CF992311F0882371F3805E0A
:10157000883058F3F4CF803F40F3815F833078F7B1
:10158000E4CF80911402816080931402BECF9D113C
:1015900012C090910E02C9120EC0E1100CC08683D9
:1015A000C801EDDC87E0F801AEE0B2E001900D92F9
:1015B0008A95E1F770CFC8012EDD882309F46DCF3D
:1015C000EE2009F46ACF80911402803280F02091DD
:1015D0000E0230910F02398728879B868A86909168
:1015E00012029C871D868E87CE010896C8DC87E094
:1015F000F801AEE0B2E001900D928A95E1F7A6DE27
:1016000096DE4DCF90911402292F207F89F4682D0A
:101610009A8A898AA6017A899E2D07DD8EE092E05A
:10162000AEDC87E0F50111928A95E9F780DE6DCF97
:10163000882309F48BCF80910F028D110FC0809108
:101640000E02C8120BC0E11009C09683C80197DCD6
:1016500087E0F50111928A95E9F778CFC801DBDCC4
:10166000882309F41ACFEE2009F417CF80911402D1
:10167000803208F4BCCF20910E0230910F023A83E1
:1016800029839C828B82909112029D831E828F837C
:10169000CE010196ABCF483C5105A8F5882309F44B
:1016A000FECEFE2CEE2009F4F8CE80910F028D11B3
:1016B0001EC080910E02C8121AC08091140280FDD3
:1016C0000DC0982F907F51F08683903F09F468CF2A
:1016D000982F907F905F8F70892B61CF87E0F80102
:1016E000AEE0B2E001900D928A95E1F72FCFC801EC
:1016F00092DC81117CCF809114028160809314026E
:10170000C8013DDC23CF682D9A8A898AA6017A898F
:101710009E2D8BDC87E0F50111928A95E9F7BBCE0F
:10172000AEE0B0E0E6E9FBE00C94DE2028873987E4
:101730004A875B876C877D878E87CE0108967EDE21
:101740008823A9F06C85662339F0288539854A8578
:101750005B857D858E8573DC17E08091D401909147
:10176000D50189133BC02E96E3E00C94FA2087E064
:10177000FE013896DE01119601900D928A95E1F7EF
:101780008C85882349F32091D50130E0C901019669
:10179000877099274091D4014817190691F097E076
:1017A000929FD001939FB00D1124AA52BE4FFE010B
:1017B000319601900D929A95E1F78093D50196DDCF
:1017C000CBCF0CDC1092D5011092D40187E0EEE073
:1017D000F2E0DF011D928A95E9F7BECF819FC0013B
:1017E00011248A529E4F2ADE882309F4BCCFE0914F
:1017F000D4011E9FF0011124EA52FE4F2081318155
:101800004281538164817581868119DC8091D40184
:1018100090E00196877099278093D4019ECF8091A4
:101820001D02869586958695089580911D02877084
:10183000089590911D02977081E009F480E0089569
:1018400080912902089590912902892B8093290281
:1018500008958095909129029823909329020895E4
:1018600010922902089590912802892B80932802D2
:1018700008958095909128029823909328020895C6
:101880001092280208950895FECF089590911E02A7
:10189000292F282329F08095892380931E02F4CFD5
:1018A00008950895FECF089590911F02292F2823AF
:1018B000281721F0982B90931F02F4CF0895909150
:1018C0001F02292F282329F08095892380931F0246
:1018D000E9CF089580911F02882321F010921F0202
:1018E00080E0E0CF08950F931F93CF93DF93009193
:1018F000000110910101C091290280912802C82B9A
:1019000080911F02882329F0C82B0E94BF178111E4
:10191000E1DFF801C083C0910001D091010148E0EE
:1019200050E065E172E0CE010E941A21892B59F046
:1019300088E0FE01A5E1B2E001900D928A95E1F701
:10194000CE010E940F17DF91CF911F910F91089543
:10195000CACF08950895FECF08959091640292FF32
:101960000EC098E0899F90011124622B60931D02A4
:10197000AEDB80911D02869586958695ECCFA7CB30
:1019800010921D0280E0E7CF90911D02809589237F
:1019900080931D02282F277059F4891749F09091E0
:1019A000640292FF05C08695869586959EDBE8CFFA
:1019B0000895CF93C82F8091640282FB992790F9F4
:1019C0009C17C9F0C0FB82F98093640283E692E021
:1019D00057D082E0D9DF80913C0280FF0CC01F927B
:1019E000CF938FE292E09F938F930E94FC020F901F
:1019F0000F900F900F90CF9108958091640282FB19
:101A0000882780F991E08927D4CF81E0D2CF80E088
:101A1000D0CF60E070E0CB0187C360E070E0CB0125
:101A20007DD3F7CFA3E0B0E0E8E1FDE00C94DF2048
:101A30002ED339D31B82CE0103964CD381E090E0A4
:101A40009093D3018093D20151D31A8219828A8153
:101A500084618A83CE0101965AD3DFDF2396E2E0C8
:101A60000C94FB20DFCF089524C3089511C308957B
:101A700026C3089535C3089539C308953CC3089516
:101A800046C3089557C30895A6E0B0E0EAE4FDE038
:101A90000C94DD200E9439198C0180912A029091CA
:101AA0002B028017910781F019821A820E9439193E
:101AB000682F49815A81792F80E090E00E94A70425
:101AC00010932B0200932A022696E4E00C94F9204E
:101AD0000E944519609338027093390280933A024C
:101AE00090933B02609334027093350280933602E8
:101AF00090933702089508950895FDCF08950895AD
:101B0000FEDFFBCF0895FECF08950895FEDFFBCFE3
:101B100085E29BE1AAD4F0DFF3CF81E00895FDCF09
:101B20000895FBCF0895089508950895FCDFFCDF24
:101B3000FCCF9CDF811101C095DF8CE392E098DF40
:101B400083E692E09BDFADD495DF90DA8091D001FF
:101B50009091D101A4CA0E943019F0D3EADF0E940B
:101B60007704D4CFA6E0B0E0E8EBFDE00C94D320FE
:101B7000D6DF811108C088DFB6D70E947F04269681
:101B8000EEE00C94EF20ECD32CE2822E22E0922E99
:101B9000640110E0F601E190F1906F01812FD5D240
:101BA0001F5F143009F447C0E816F90699F38091D5
:101BB0003C0281FDD3D2B5DF782E10E06624639419
:101BC000812FC3D27C01F401A190B1904F018A15FD
:101BD0009B0561F100E0CC24C394D12CAE24BF243A
:101BE000C5018C219D21892BC1F07720B1F009839B
:101BF0001A830E9439199C838B836D8221E0C7016F
:101C00008C219D21892B09F420E049815A816B8127
:101C10007C818D81922F0E94A7040F5FCC0CDD1C6C
:101C20000E30F1F6F4013297F182E0821F5F14303A
:101C300039F64EDFA1CFE816F90609F0B8CF9BCFF1
:101C40001F93CF93DF9320D1EC01C11580E5D80716
:101C5000F0F5C11580E4D80708F09AC0C03ED10560
:101C600020F5CD3CD10508F082C0C83AD10578F402
:101C7000C53AD10508F073C0C130D10519F12097DC
:101C800009F1C430D105F0F4D0E0C0E01BC0C33C82
:101C9000D105D0F7C85AD0E0CC0FDD1FCF5ADE4FA8
:101CA0000990D881C02DD4640DC0C11580E2D80739
:101CB00008F0CDC0C11581E0D80708F05AC0C83E71
:101CC000D10510F7CE01DF91CF911F910895C03655
:101CD00082E5D80718F5C03482E5D80708F068C057
:101CE000C03282E5D80708F05CC0C11582E5D8078C
:101CF00008F493C02C2F2695269580E2289F90010A
:101D000011248C2F8370C1E0D0E002C0CC0FDD1F06
:101D10008A95E2F7C22BD32BDD68D4CFC03A82E597
:101D2000D80760F4C03882E5D80708F456C0CF71F0
:101D3000D0E0DC2FCC27C46FD06AC4CFC03C82E592
:101D4000D80708F45FC0C03E82E5D80708F09CCFF2
:101D5000DC2FCC27CC27DF71C06FD06AB3CFC55A38
:101D6000D0E0C957DE4FC881D0E0D064ABCFD0659A
:101D7000A9CF8D2F2BD1182FCE01992785D0C12F18
:101D8000D0E0DC2FCC27CC27DF71C82BD92B9ACF02
:101D9000CE01992779D0CC27DF70C82BD92BD06AF8
:101DA00091CFCF71D0E0DC2FCC27C16FD06A8ACF22
:101DB0002C2F26952695277080E2289F90011124CC
:101DC0008C2F8370C1E0D0E002C0CC0FDD1F8A955C
:101DD000E2F7C22BD32BDC6875CF2C2F26952695E6
:101DE000277080E2289F900111248C2F8370C1E01E
:101DF000D0E002C0CC0FDD1F8A95E2F7C22BD32BB7
:101E0000DA6860CF8C2F8F71E1D0C82FD0E0DC2F43
:101E1000CC27CC27DF71D06255CF8C2F8F71D6D0D5
:101E200055E0D695C7955A95E1F7CF70D0E0DC2FF5
:101E3000CC27282F30E084FF06C044E0220F331F58
:101E40004A95E1F73327C22BD32BD0693BCF8D2F97
:101E50008F71BCD0182FCE01992716D0C12FD0E09A
:101E6000DC2FCC27CC27DF71C82BD92BD4CF462F22
:101E7000743028F46E3018F4672F0C94210390E02E
:101E800080E00895F4DFDCCE82389105B9F1B0F43A
:101E90008133910509F47DC048F48932910509F434
:101EA0006DC08A32910509F47BC008958533910590
:101EB00009F45FC08933910509F10895833E9105C6
:101EC000D9F138F4803E910529F1823E910579F1EE
:101ED0000895863E9105D9F1873E910509F43EC0EB
:101EE000843E910541F52091640221FF24C0809138
:101EF000630284FD19C087EE90E00895209163028B
:101F0000237009F05AC02091640223FF14C089E2B3
:101F100090E008952091630220FD38C03091640262
:101F200030FF09C024FF43C090E080E00895209175
:101F3000630222FDF7CF08952091630222FD3AC08B
:101F40003091640230FD39C024FFF5CFEDCF2091F0
:101F5000630223FFF0CF24FDE7CFCDCF20916302B2
:101F600023FD2EC03091640231FFEECF84EE90E06D
:101F700008952091630225FFDECFC9CF209163022F
:101F800025FD21C02091640223FFD5CF89E390E095
:101F9000D2CF2091630226FFCECF8AE290E008954F
:101FA0002091630226FFC7CF81E390E0089583EE7E
:101FB00090E0089582EE90E0089580EE90E008951C
:101FC00086EE90E0089585E390E008959091630295
:101FD00092FF10C041E0282F2471243009F040E026
:101FE00031E0282F2871283009F030E0431711F034
:101FF0002CE0822793FF10C041E0282F2471243168
:1020000009F040E031E0282F2871283109F030E054
:10201000431711F02CE082273091640230FF10C08A
:1020200051E0282F2171213009F050E041E0282FA4
:102030002871283009F040E0541711F029E0822778
:1020400031FF10C041E0282F2171213109F040E01B
:1020500031E0282F2871283109F030E0431711F0C2
:1020600029E0822794FD877E0895CF939C01205E0E
:102070003245C1E02032310538F4FB01C581C11180
:1020800003C08F710E949A038C2FCF9108950895F9
:1020900090E080E00E94382121E0833E9E4F09F0CD
:1020A00020E0822F089563EE7EEF90E080E00C94B4
:1020B00057216FEF7FEF90E080E00C945721CF9392
:1020C000DF93EC0182E090E00E9430218883DF9171
:1020D000CF910895FC01608182E090E00C943D2155
:1020E00083E090E00E94302190E00895682F83E023
:1020F00090E00C943D21CF93DF93EC0184E090E0DD
:102100000E94382199838883DF91CF910895FC0143
:102110006081718184E090E00C945721AB01BC0197
:102120008FE090E00C944F21AB01BC0183E190E083
:102130000C944F21682F8EE090E00C943D2108957F
:10214000FECF08950895FECF0895E82FF0E0EE0F3A
:10215000FF1FE359FD4F808191810895B0E0A0E019
:10216000E4EBF0E10C94D52084E592E09F938F930B
:102170000E94FC028DE6E82E82E0F82E0F900F9070
:10218000912C812C9FE4A92E92E0B92E2CE4C22E32
:1021900022E0D22E06E412E0C4E4D2E09F928F92B5
:1021A000BF92AF920E94FC02DF92CF920E94FC028B
:1021B000F701819191917F010E945C049F938F931D
:1021C0001F930F930E94FC02DF93CF930E94FC02A7
:1021D0009FEF891A990AEDB7FEB73C960FB6F894AF
:1021E000FEBF0FBEEDBFF4E08F169104B9F6CDB778
:1021F000DEB7ECE00C94F12080EA8A95F1F70895BF
:1022000000C00895F9CF0895F894E82FE295EF7093
:10221000F0E031A1282F2F7081E090E001C0880FFD
:102220002A95EAF7982F9095932391A392A1892B51
:1022300082A378940895CF93DF9383E9E5DF82E961
:10224000E3DF81E9E1DF84EFDFDFCAE8D1E08991F4
:102250008F3F09F0D9DF81E0C839D807C1F7DF9196
:10226000CF910895AF92BF92DF92EF92FF920F93BA
:102270001F93CF93DF938C01D62EC62FD0E0CE01D3
:1022800088569E4F7C01FC0120812F3F09F449C0F4
:10229000F894E22FE295EF70F0E031A12F7081E029
:1022A00090E001C0880F2A95EAF7932F982B91A30D
:1022B00092A18095892382A37894A2DFEAE8F1E0D5
:1022C00041E050E0B12CA12C21912F3FA1F1A22F90
:1022D000A295AF70B0E090968C9190E02F7002C004
:1022E000959587952A95E2F780FD25C0CA01A82A11
:1022F000B92A440F551F81E0E839F80729F7F7019B
:1023000080818F3F09F080DF61E0A114B10409F4FE
:1023100060E08D2D77DFCC0FDD1FC00FD11FB9829C
:10232000A882DF91CF911F910F91FF90EF90DF90E6
:10233000BF90AF90089590E080E0D9CF7CDF88E037
:10234000EDE6F2E0DF01982F1D929A95E9F7E5E6B8
:10235000F2E0DF011D928A95E9F784E039D0F0CEF2
:10236000A8E0B0E0E6EBF1E10C94DC208E010F5F19
:102370001F4F88E0F80111928A95E9F7F12C6F2D33
:10238000C80170DFF394F4E0FF12F9CF48E050E0A9
:10239000B80185E692E00E941A2121E0009709F435
:1023A00020E0892B41F088E0F801A5E6B2E0019039
:1023B0000D928A95E1F744E06DE672E085E692E0E1
:1023C00008D0182FC0DE812F2896E5E00C94F82065
:1023D0000895B0E0A0E0EFEEF1E10C94D9206C019B
:1023E0007B01042FC22F222371F081E080933F02F2
:1023F00040D790933E0280933D0280E0CDB7DEB798
:10240000E8E00C94F520D0913F02DD23B1F38091F8
:102410003D0290913E02BED6059778F310E0000F82
:10242000111FA801B601C7010E941A21892B31F0A2
:10243000A801B601C7010E942721CD2F10923F02AB
:102440008C2FDCCF8FCB0895AED60E94871B60DB2C
:102450000E949F1B80DB0E94A81B0E94AB1BF2DF27
:102460000E94CD1BA0D762DBF8CF9093AD01809383
:10247000AC010895F9CA089580E067DE817008957F
:102480006FDF2FEF86E791E0215080409040E1F729
:1024900000C0000065DFF0DF882311F0EBDF25C707
:1024A0000895EECF0895CF93DF93EB0186319C47DB
:1024B000F1F4C6D99D81992389F08A7A91E009F4D3
:1024C00090E090934002811107C089E2A8D540DADC
:1024D00080E0DF91CF91089585E3F8CF80914002AD
:1024E000811103C089E2A1D5F2CF85E3FCCF81E061
:1024F000F0CFCF93DF93EC01FB018581882309F4B2
:10250000CBC09E0130572332310508F0ABC083E6C3
:1025100092E0B4DAFE01E150F047E232F10520F436
:10252000E758FE4D0C94C92080916302816080932E
:10253000630292C0809164028860809364028CC0C0
:10254000809163028260F3CF809163028460EFCF59
:10255000809163028860EBCF809164028160EDCF4F
:10256000809164028260E9CF809163028061DFCF55
:10257000809163028062DBCF809163028064D7CF59
:102580000E94EE07809163028068D1CF8091630240
:102590008C60CDCF809164028360CFCF8091630245
:1025A0008E7FC5CF80916402877FC7CF8091630201
:1025B0008D7FBDCF809163028B7FB9CF8091630205
:1025C000877FB5CF809164028E7FB7CF8091640200
:1025D0008D7FB3CF809163028F7EA9CF80916302FC
:1025E0008F7DA5CF809163028F7BA1CF0E94EE07E4
:1025F000809163028F779BCF80916302837F97CF17
:10260000809164028C7F99CF8091630282FB99272D
:1026100090F921E0922790FB82F990FB83F987CF14
:1026200080916402982F909591708E7F892B90FBFA
:1026300081F983CF90916302892F8F7B96FF80640D
:1026400076CF0E94EE0790916302892F97FB87F95E
:1026500080586DCF81E016DA83E692E011DA0E94AD
:10266000EE0780E0DF91CF91089580E0F4CF909164
:102670006302892F8F7E94FF806159CF909163020E
:10268000892F8E7F90FF816052CF90916402892FB5
:10269000877F93FF886051CF81E0E4CF282F35EB0F
:1026A0002303C001112497FF04C080589109892F8A
:1026B000089580589F4FFBCF8091470280FF0DC047
:1026C0006091070170E0660F771F6038710570F543
:1026D0006115710569F1862F089581FF07C060912A
:1026E000070184E0689FB0011124EFCF60910701DA
:1026F00082FD0AC0809146028823A9F0209106013C
:1027000060910701821710F088E0ECCF869FC0012E
:10271000112433E0880F991F3A95E1F7622F70E09A
:102720000E94B620D2CF68E070E0D5CF8FE7089541
:1027300081E008958091470280FF0CC06091030101
:1027400070E075956795759567956115710549F107
:10275000862F089581FF06C06091030170E0759592
:102760006795F3CF6091030182FD0BC09091450204
:102770009923A1F06091020180910301961738F02E
:10278000682F70E06038710500F38FE70895899F26
:10279000C001112470E00E94B620F4CF61E070E027
:1027A000D7CF81E008958D3C29F486DF8195809311
:1027B0004B0208958E3C11F47FDFF9CF8F3C29F452
:1027C0007BDF819580934A020895803D11F474DF88
:1027D000F9CF893D21F4AEDF80934C0208958A3D04
:1027E00019F4A8DF8195F8CF8B3D29F4A3DF8195FB
:1027F00080934D0208958C3D11F49CDFF9CF9FE248
:10280000980F983070F4815D990B21E030E001C0A1
:10281000220F8A95EAF780914902822B8093490220
:1028200008958D3D31F48091470281608093470285
:1028300008958E3D21F4809147028260F7CF8F3D4D
:10284000B9F7809147028460F1CF40914A028D3CF4
:1028500059F480914B0287FF0DC010924B02411139
:102860000BC01092460208C08E3C81F480914B024E
:1028700018169CF3442381F080914C0290914D02F4
:10288000892B09F05AC01092450208958F3C49F4F3
:1028900047FFF0CF10924A0280914B028111ECCF9A
:1028A000E0CF803D19F41416ACF3E4CF90914C02C4
:1028B000893D29F41916F4F610924C02DBCF8A3DBB
:1028C00019F497FFD7CFF8CF90914D028B3D29F4A3
:1028D00097FFD0CF10924D02CDCF8C3D19F4191631
:1028E000CCF3C8CF9FE2980F983090F4815D990B9C
:1028F00021E030E0B90102C0660F771F8A95E2F748
:10290000CB01809590914902892380934902B2CFEF
:102910008D3D31F4809147028E7F80934702AACF8C
:102920008E3D21F4809147028D7FF7CF8F3D09F0D6
:10293000A1CF809147028B7FF0CF089580913C0218
:1029400083FF96C082E992E09F938F930E94FC02DE
:10295000809149021F928F938DE892E09F938F930D
:102960000E94FC028BE892E09F938F930E94FC02EE
:1029700080914A02282F082E000C330B3F938F932F
:1029800088E892E09F938F930E94FC0286E892E091
:102990009F938F930E94FC0280914B02282F082E58
:1029A000000C330B3F938F9383E892E09F938F93B8
:1029B0000E94FC0281E892E09F938F930E94FC02A8
:1029C00080914C02282F082E000C330B3F938F93DD
:1029D0008EE792E09F938F930E94FC028CE792E037
:1029E0009F938F930E94FC0280914D02282F082E06
:1029F000000C330B3F938F9389E792E09F938F9363
:102A00000E94FC0286E792E09F938F930E94FC0253
:102A10008DB79EB780960FB6F8949EBF0FBE8DBF40
:102A2000809146021F928F9383E792E09F938F934A
:102A30000E94FC0281E792E09F938F930E94FC0228
:102A4000809147021F928F938EE692E09F938F931F
:102A50000E94FC028BE692E09F938F930E94FC02FF
:102A60008DB79EB70C960FB6F8949EBF0FBE8DBF64
:102A700000D49C0190914A0280914B02982B21F046
:102A8000309344022093430290914C0280914D0276
:102A9000982B21F0309342022093410288E492E087
:102AA0000EC286E0E8E4F2E0DF011D928A95E9F7C4
:102AB0001092460210924502109247020895FC01BE
:102AC000828181110EC0838181110BC084818111AB
:102AD00008C091E08581811101C090E0892F81704B
:102AE000089581E0FCCFA6E0B0E0E9E7F5E10C94C1
:102AF000DE2086E0E8E4F2E0DE01119601900D921E
:102B00008A95E1F710924A0210924B0210924C0201
:102B100010924D028B819C81892B81F08091430220
:102B20009091440237D3AC01909146029923A9F1C8
:102B3000809108018417150608F43CC08D819E81A0
:102B4000892B89F0809141029091420223D3AC01FC
:102B500090914502992309F463C080910401841780
:102B6000150608F46BC0BE016F5F7F4F88E492E0EA
:102B70006DD2811104C088E492E0A1DF8111DEDE14
:102B800086E0FE013196A8E4B2E001900D928A95AC
:102B9000E1F72696E3E00C94FA20209109018AE0FF
:102BA000289F900111242417350740F69F5F9093CA
:102BB000460202C09F3FD1F71B81112351F07CDDFB
:102BC0009FEF11160CF491E0899F802D11248093C2
:102BD0004A021C81112351F06FDD9FEF11160CF496
:102BE00091E0899F802D112480934B0280914A02AD
:102BF000882309F4A3CF10914B02112309F49ECF2F
:102C00004DDD882349F080934A02812F47DD8823D8
:102C100029F080934B0292CF81E0F5CF81E0F9CF8C
:102C2000209105018AE0289F90011124241735077F
:102C300008F099CF9F5F9093450202C09F3FD1F764
:102C40001D81112351F076DD9FEF11160CF491E0F8
:102C5000899F802D112480934C021E81112351F0F5
:102C600069DD9FEF11160CF491E0899F802D1124EE
:102C700080934D0280914C02882309F474CF109107
:102C80004D02112309F46FCF09DD882349F08093A9
:102C90004C02812F03DD882329F080934D0263CFFE
:102CA00081E0F5CF81E0F9CF0F931F93CF93DF93AE
:102CB000C42FD22FFC0185818823C1F0409350029C
:102CC000D8D290934F0280934E0280E28C0F8830CE
:102CD00040F4C77081E001C0880FCA95EAF70E94EE
:102CE000DA05DF91CF911F910F9108951091500255
:102CF000141331C080914E0290914F024BD2883C08
:102D0000910548F5C0E2CD0F1D17B9F080E2810FA3
:102D1000883040F4177081E001C0880F1A95EAF7F7
:102D20000E94DF05C83048F481E09D2F977001C0F4
:102D3000880F9A95EAF70E94DA05802F0E94D30542
:102D4000C83078F6D77081E001C0880FDA95EAF7CD
:102D50000E94DF05C6CF80E28C0F883010F6C77066
:102D600081E001C0880FCA95EAF7F2CF0F93DB012B
:102D700088519C478730910598F5FC01E556FE4D3A
:102D80000C94C92006E221EE41EE6AE17CE7CD0118
:102D90008BDF80E00F91089507E225EE45EE6BE1B1
:102DA0007CE7F5CF06E221EE40EE68E17CE7EFCF6D
:102DB00007E225EE44EE69E17CE7E9CF06E221EE89
:102DC00042EE6CE17CE7E3CF07E225EE46EE6DE1F3
:102DD0007CE7DDCF08E221E045EE6EE17CE7D7CF6E
:102DE00015968C91882319F010925002D3CF81E070
:102DF000D1CF90935602809355020895E0915502E9
:102E0000F0915602309739F00190F081E02D309723
:102E100011F00995089580E00895F0CF0895EF929C
:102E2000FF920F931F93CF93DF93EC01E091550234
:102E3000F09156023097F1F10280F381E02D309746
:102E4000C9F1099580913C0282FF34C080FF0DC01A
:102E500088811F928F938DEB92E09F938F930E94B6
:102E6000FC020F900F900F900F907E0186E0E80E0D
:102E7000F11C07EB12E080913C0280FF0BC08A81BD
:102E80001F928F931F930F930E94FC020F900F903D
:102E90000F900F902196CE15DF0569F780913C02C7
:102EA00080FF08C085EB92E09F938F930E94FC0205
:102EB0000F900F90CDB7DEB7E6E00C94F720E091CD
:102EC0005502F0915602309759F026813781232B15
:102ED00039F022E0DC012C930680F781E02D099582
:102EE0000895A3E0B0E0E7E7F7E10C94DF2020913C
:102EF00053023091540228173907B1F090935402CD
:102F000080935302E0915502F0915602309761F0A0
:102F10000084F185E02D309739F023E029839B83ED
:102F20008A83CE01019609952396E2E00C94FB205A
:102F3000A3E0B0E0EEE9F7E10C94DF20209151022C
:102F40003091520228173907B1F0909352028093C2
:102F50005102E0915502F0915602309761F00084E1
:102F6000F185E02D309739F024E029839B838A8313
:102F7000CE01019609952396E2E00C94FB20409146
:102F80000001509101019A012E5F3F4F485F5F4F52
:102F900080E02417350709F40895F90191919F0104
:102FA0009923B9F38F5FF5CF882371F02091000149
:102FB00030910101F9013296285F3F4F91919817A6
:102FC00029F0E217F307D1F780E0089581E0089532
:102FD0009C01FC0132969FEF80E04191461751F031
:102FE0009F3F19F4411101C0982F8F5F8630A9F7D8
:102FF0009F3F09F40895290F311D97FD3A95F90176
:1030000062830895FC01329608962191261303C02D
:10301000DF0111971C92E817F907B9F70895682F97
:103020008091000190910101D3CF682F8091000120
:1030300090910101E7CFE0910001F09101013296FA
:1030400086E0DF011D928A95E9F70895DC01FB0116
:1030500011969C9111978181981322C012968C91A0
:103060001297882319F0928189131AC013968C91B4
:103070001397882319F09381891312C015968C91A8
:103080001597882319F0958189130AC014969C918D
:10309000992321F081E02481291303C080E001C03D
:1030A00081E0817008950895FECF089581110CC0CC
:1030B00081E080930D0160910A0170910B01809174
:1030C0000C0190910D01F0CF82E0F3CF83E080936B
:1030D0000D0160910A0170910B0180910C0190919A
:1030E0000D01E2CFE3CF089581E080930D0160915F
:1030F0000A0170910B0180910C0190910D01D4CFC8
:10310000F3CF089591E0811101C090E090930C01FC
:1031100060910A0170910B0180910C0190910D0159
:10312000C3CF80910C01089580930B0160910A0137
:1031300070910B0180910C0190910D01B5CF8091A0
:103140000B01089580930A0160910A0170910B01AF
:1031500080910C0190910D01A7CF80910A010895F3
:1031600008950895FECF089508950895F9CF08951C
:10317000CF93FADFF5D8F9DFC0E08C2F0E94A510BD
:10318000892B31F4CF5FC430C1F780E0CF9108952F
:1031900081E0FCCFCF93DF93EC016BD08C1B9D0BB8
:1031A000DF91CF91089585B7806885BF85B7806826
:1031B00085BF08951F921FB61F9211248F939F936E
:1031C000AF93BF9380915702811113C08091750214
:1031D00090917602A0917702B09178024196A11D5C
:1031E000B11D8093750290937602A0937702B093FD
:1031F0007802BF91AF919F918F911F901FBE1F903A
:10320000189580917D02843031F10E943C04109227
:10321000570288E190E020E40FB6F894A8958093D7
:1032200060000FBE2093600083B7817F846083BFFE
:1032300083B7816083BF7894889583B78E7F83BF7F
:103240000FB6F894A8958091600088618093600023
:10325000109260000FBE08950E94EE070C94400487
:1032600082E084BD93E095BD9AEF97BD80936E0098
:1032700008952FB7F8948091750290917602A091ED
:103280007702B09178022FBF08952FB7F89460911C
:1032900075027091760280917702909178022FBF2B
:1032A000089578941F921FB61F9211248F939F93B5
:1032B000AF93BF938091750290917602A0917702AF
:1032C000B09178020196A11DB11D80937502909373
:1032D0007602A0937702B0937802BF91AF919F914D
:1032E0008F911F901FBE1F90189587E797E79093C7
:1032F00001088093000888E19AE00FB6F894A89539
:10330000809360000FBE90936000FFCF88E19AE049
:103310000FB6F894A895809360000FBE909360005C
:10332000FFCF08959B01BA0190917D029430E1F4A2
:103330008F708093E9009FEF8091E800915085FDA8
:1033400006C085ED8A95F1F700009111F5CF8091C7
:10335000E80085FF09C050E040E0C90192D28091A9
:10336000E8008E778093E800089543E050E0BC01C8
:1033700082E0D8CF46E050E0BC0182E0D3CFCF93CB
:10338000DF93EC01CEDE48E050E0BE0181E0CADF11
:1033900088E0FE01ABE5B2E001900D928A95E1F77D
:1033A000DF91CF91089508958CEF92E09F938F93D2
:1033B0000E94FC0280917C020F900F90811107C047
:1033C000EED345D48091E20084608093E2000895BA
:1033D00088EF92E09F938F930E94FC0210927C02F0
:1033E0000F900F90089584EF92E09F938F930E9427
:1033F000FC027ADE81E086DE0F900F90089580EF68
:1034000092E09F938F930E94FC026091790281E089
:10341000611101C080E05ADE0F900F9008958CEE8C
:1034200092E09F938F930E94FC0290917D0281E035
:10343000943009F080E06091790254DE0F900F9093
:103440000895209159022F5F822F62E383D699233A
:1034500019F02093590208951092590280915A024E
:103460008823F1F080917D028430C1F49091E900CD
:103470009F702091EC00822F817020FD80E8892BC5
:1034800093E09093E9009091EB0090FF04C090913D
:10349000EE0097FD08C08F708093E90010925A02E9
:1034A00008951092F1009091E80095FDFACF909167
:1034B000E80090FFF0CF9091E8009E779093E800AD
:1034C000EACF42E061EC81E0E6D242E261EC82E0E8
:1034D000E2D242E261EC83E0DED290917D0281E0B3
:1034E000943009F080E060917902E0CD80917F0214
:1034F000833009F45EC030F48130C1F1823009F4C8
:1035000094C008958A3009F483C08B3009F46BC0ED
:10351000893009F04DC080917E02813209F048C0A7
:103520008091820290918302029708F041C08091BD
:10353000E800877F8093E8008091E80082FF34C034
:103540009091F3008091F200029731F48091F100A4
:10355000813011F0863019F48091F100E5DD809121
:10356000E8008B778093E800CAD222C080917E0267
:10357000813AF1F48091E800877F8093E8008091A0
:10358000820290918302892B59F468E08BE592E0E6
:1035900070E0C4D18091E8008B778093E8000895B3
:1035A00060E090E080E0F4CF80917D028111C4CF93
:1035B000089580917E02813AD9F78091820290919C
:1035C0008302892BA9F78091E800877F8093E80028
:1035D0008091E80080FFFCCFA4DD8093F100809112
:1035E000E8008E77BFCF80917E02813209F780910B
:1035F000820290918302892BD9F68091E800877F1F
:103600008093E8007CD2809180027CDD0C94EE07F0
:1036100080917E02813261F68091E800877F8093FD
:10362000E8006DD2809181028DCD80917E02813A39
:1036300009F0BECF8091E800877F8093E8008091F9
:10364000E80080FFFCCF89DDC8CF9FB7F8941092C7
:103650005A029FBF90917D02943009F048C020919A
:10366000E9002F703091EC00932F917030FD90E8BD
:10367000922B23E02093E9002091EB0020FF34C03F
:103680002091EE0027FF30C020915802222321F024
:103690002091E80025FF28C01092580226E03091C2
:1036A000E80035FF14C08093F1008091E80085FDAB
:1036B00027C08091E80080FFFCCF8091E8008E77E2
:1036C0008093E8009F709093E90080E00895309126
:1036D0007D02343049F43091EB0035FD05C02150B6
:1036E00041F481E0809358029F709093E9008FEF3E
:1036F0000895EFE9FFE03197F1F700C00000CFCF68
:103700008FB7F89421E020935A028FBFDBCF84B7A4
:10371000877F84BF0FB6F894A89580916000886178
:1037200080936000109260000FBE80E890E00FB6BA
:10373000F89480936100909361000FBEE1CC2FD28A
:1037400086D2E2EEF0E08081846080837894E8C4E1
:103750008EE091E04ECB80917D02853089F480919E
:103760003C0280FF08C086ED92E09F938F930E94F9
:10377000FC020F900F9080917D02853011F06CCD8E
:1037800008953FDDF5DC8823B1F380917B02882327
:1037900091F361D00E94EE07EECF08959A01409117
:1037A00084025091850200C0492F552743305105AE
:1037B00021F168F44130510509F443C0423051050C
:1037C00009F444C090E080E050E040E026C041327F
:1037D000510551F142325105A9F76330710590F757
:1037E000FB01EE0FFF1FE156FE4F408151816456F1
:1037F0007E4FFB01808190E010C0992781309105B8
:1038000081F0009729F00297E9F6E0E0F3E002C0CA
:10381000E4E3F3E0849190E0AF01F9015183408348
:103820000895E2E1F3E0F6CF6330710558F6660FD4
:10383000771FFB01EB55FE4F4081518189E090E0FD
:10384000ECCF82E190E04CE853E0E7CF84E590E0F4
:1038500048E353E0E2CF80E189BD82E189BD09B44C
:1038600000FEFDCF8091D8008F7D8093D80080919D
:10387000E00082608093E0008091E00081FDFCCF59
:103880000895AF92BF92CF92DF92FF920F931F9352
:10389000CF93DF936C01EB018A0150D1F82E811197
:1038A00023C00115110539F0F80180819181C81BF1
:1038B000D90BC80ED91EB12CA12C2097A9F080914C
:1038C000E80085FD21C08091E8008E778093E800B4
:1038D00001151105A1F0F80180819181A80EB91E92
:1038E000B182A08285E0F82E8F2DDF91CF911F91BC
:1038F0000F91FF90DF90CF90BF90AF9008951ED1B1
:103900008823D9F2F82EF0CFF60181916F018093D0
:10391000F1002197FFEFAF1ABF0ACFCFFC018091D2
:1039200084029091850286179707A0F061157105B2
:1039300029F49091E8009E779093E80090E061155B
:10394000710551F4911108C08091E80082FF34C0E4
:1039500080E00895BC01F2CF80917D028823C1F1FF
:103960008530C1F18091E80083FD30C08091E8008E
:1039700082FDEACF8091E80080FFE1CF8091F300E3
:103980002091F200382F6115710519F028303105AA
:1039900058F091E02830310509F090E02091E800DE
:1039A0002E772093E800CBCF81918093F100615076
:1039B00071092F5F3F4FE7CF80917D02882341F04F
:1039C000853041F08091E80083FFBECF81E008950B
:1039D00082E0089583E00895FC0180918402909133
:1039E000850286179707A0F06115710529F480916B
:1039F000E8008E778093E80090E06115710551F43E
:103A0000911108C08091E80082FF35C080E00895E0
:103A1000BC01F2CF80917D028823C9F18530C9F1C4
:103A20008091E80083FD31C08091E80082FDEACFFB
:103A30008091E80080FFE1CF8091F3002091F200B7
:103A4000382F6115710519F02830310558F091E0D3
:103A50002830310509F090E08091E8008E7780935E
:103A6000E800CBCF84918093F100319661507109C9
:103A70002F5F3F4FE6CF80917D02882341F0853054
:103A800041F08091E80083FFBDCF81E0089582E09E
:103A9000089583E00895982F973028F08F708093D1
:103AA000E90081E008959093E900242F762F50E0FB
:103AB000981731F07091EC002091ED005091F000DA
:103AC00021FD02C09F5FE8CF3091EB003E7F309335
:103AD000EB003091ED003D7F3093ED003091EB0035
:103AE00031603093EB007093EC002093ED00509325
:103AF000F0002091EE0027FDE5CF80E00895809151
:103B00007E0287FF13C08091E80082FF06C080918B
:103B1000E8008B778093E80004C080917D028111DA
:103B2000F2CF089580917D028823D9F38091E80037
:103B300080FFF8CF8091E8008E77ECCF2091E400F1
:103B40003091E50095E6A9012091EC00822F81706B
:103B500020FF06C08091E80080FF06C080E0089545
:103B60002091E80022FD1AC080917D02882389F00F
:103B7000853089F08091EB0085FD0FC02091E40035
:103B80003091E50042175307F9F29150E1F684E0D5
:103B9000089582E0089583E0089581E0089567D054
:103BA0006ED0E0EEF0E0808181608083E8EDF0E0AF
:103BB00080818F77808319BCA7EDB0E08C918E7FD8
:103BC0008C9380818F7E808310927C0208950F9366
:103BD0001F93CF93DF934BD052D0C8EDD0E08881B4
:103BE0008F77888388818068888388818F7D8883A8
:103BF00019BC10927D021092790210927B021092F1
:103C00007A0200EE10E0F80180818B7F808388814A
:103C10008160888342E060E080E03DDFE1EEF0E03B
:103C200080818E7F8083E2EEF0E0808181608083FE
:103C3000808188608083F80180818E7F8083888185
:103C400080618883DF91CF911F910F910895E8EDF6
:103C5000F0E080818F7E8083E7EDF0E080818160FD
:103C6000808384E082BF81E080937C02B0CFE8ED66
:103C7000F0E080818E7F80831092E20008951092A0
:103C8000DA001092E10008951F920F920FB60F9282
:103C900011242F933F934F935F936F937F938F9351
:103CA0009F93AF93BF93EF93FF938091E10082FFC7
:103CB0000AC08091E20082FF06C08091E1008B7F04
:103CC0008093E100BEDB8091DA0080FF18C0809114
:103CD000D80080FF14C08091DA008E7F8093DA00D4
:103CE0008091D90080FF91C080E189BD82E189BDCA
:103CF00009B400FEFDCF81E080937D0255DB809109
:103D0000E10080FF18C08091E20080FF14C0809124
:103D1000E2008E7F8093E2008091E20080618093D8
:103D2000E2008091D80080628093D80019BC85E0C1
:103D300080937D0264DB8091E10084FF2AC0809142
:103D4000E20084FF26C080E189BD82E189BD89B59A
:103D5000982F917080FFFBCF8091D8008F7D80934A
:103D6000D8008091E1008F7E8093E1008091E20095
:103D70008F7E8093E2008091E20081608093E20078
:103D800080917902882309F445C084E080937D0204
:103D900046DB8091E10083FF27C08091E20083FF32
:103DA00023C08091E100877F8093E10082E08093CF
:103DB0007D02109279028091E1008E7F8093E10074
:103DC0008091E2008E7F8093E2008091E20080612A
:103DD0008093E20042E060E080E05DDE8091F000F0
:103DE00088608093F000FFDAFF91EF91BF91AF916F
:103DF0009F918F917F916F915F914F913F912F9103
:103E00000F900FBE0F901F90189519BC10927D0255
:103E1000DFDA75CF8091E30087FD93E090937D0218
:103E2000B7CF1F920F920FB60F9211242F933F938B
:103E30004F935F936F937F938F939F93AF93BF93B2
:103E4000CF93DF93EF93FF93D091E900DF708091E0
:103E5000EC00C82FC17080FDC0E81092E90080918D
:103E6000F000877F8093F00078941ED01092E900D4
:103E70008091F00088608093F000CD2BCF70C093CC
:103E8000E900FF91EF91DF91CF91BF91AF919F91A9
:103E90008F917F916F915F914F913F912F910F90F3
:103EA0000FBE0F901F901895AAE2B0E0E9E5FFE180
:103EB00085C18EE792E02091F100FC012193CF01B2
:103EC000F2E086389F07B9F711DB8091E80083FFA5
:103ED00016C180917E0290917F029A3008F00FC146
:103EE000E92FF0E0EE55FE4D54C1803899F082384C
:103EF00009F005C1809182028F70873008F0FFC001
:103F00008093E9008091EB0085FB882780F910926F
:103F1000E90006C080917A0290917B029111826043
:103F20009091E800977F9093E8008093F1001092C1
:103F3000F1008091E8008E77DFC0882309F4CDC0BE
:103F4000823009F0DCC0809180028111D0C0809164
:103F500082028F702FEF280F263008F0D0C0809398
:103F6000E9002091EB0020FFC2C0933031F4809132
:103F7000EB0080628093EB00BAC09091EB009061FF
:103F80009093EB0021E030E001C0220F8A95EAF720
:103F90002093EA001092EA008091EB008860EACF5B
:103FA0008111ADC0109180021F778091E30080786D
:103FB000812B8093E3008091E800877F8093E80065
:103FC0009EDD8091E80080FFFCCF8091E300806857
:103FD0008093E30082E0111183E080937D028FC023
:103FE0008058823008F08BC08091800290918102CD
:103FF0008C3D23E0920799F583E08A838AE28983E6
:104000004FB7F894DE01139620E03EE051E2E32F33
:10401000F0E050935700E49120FF03C0E295EF7069
:104020003F5FEF708E2F90E0EA30B8F0C7968D9327
:104030009D932F5F243159F74FBF8091E800877F10
:104040008093E8006AE270E0CE01019667DC80911F
:10405000E8008B778093E80052C0C096E8CF60916B
:10406000820270918302AE014F5F5F4F97DBBC010C
:10407000892B09F444C09091E800977F9093E80061
:1040800089819A81A9DCE3CF8038C9F58091E80065
:10409000877F8093E800809179028093F10049CF77
:1040A00081112DC090918002923048F58091E800F6
:1040B000877F8093E8009093790221DD80917902D7
:1040C000882311F084E005C08091E30087FDFACFDA
:1040D00081E080937D02F5D912C080918002813009
:1040E00071F481E0933009F080E080937B021092BC
:1040F000E9008091E800877F8093E80000DD8091EF
:10410000E80083FF0AC08091E800877F8093E80081
:104110008091EB0080628093EB00AA96E3E06AC096
:10412000CF9380917D02882399F0C091E900CF70F0
:104130009091EC00892F817090FD80E8C82B10923F
:10414000E9008091E80083FDAFDECF70C093E90005
:10415000CF910895991B79E004C0991F961708F034
:10416000961B881F7A95C9F78095089597FB072EAF
:1041700016F4009406D077FD08D048D007FC05D08F
:104180003EF4909581959F4F0895709561957F4F6E
:104190000895EE0FFF1F0590F491E02D09942F92E2
:1041A0003F924F925F926F927F928F929F92AF92C7
:1041B000BF92CF92DF92EF92FF920F931F93CF9314
:1041C000DF93CDB7DEB7CA1BDB0B0FB6F894DEBFAB
:1041D0000FBECDBF09942A88398848885F846E84D1
:1041E0007D848C849B84AA84B984C884DF80EE801B
:1041F000FD800C811B81AA81B981CE0FD11D0FB624
:10420000F894DEBF0FBECDBFED010895AA1BBB1B06
:1042100051E107C0AA1FBB1FA617B70710F0A61BC6
:10422000B70B881F991F5A95A9F780959095BC01E7
:10423000CD010895FB01DC0104C08D91019080192E
:1042400021F441505040C8F7881B990B0895FB0199
:10425000DC0102C001900D9241505040D8F7089502
:10426000F999FECF92BD81BDF89A992780B508953E
:10427000A8E1B0E042E050E020C0262FF999FECF3F
:1042800092BD81BDF89A019700B4021639F01FBAA9
:1042900020BD0FB6F894FA9AF99A0FBE08950396C6
:1042A000272FECDFEADF252FE9DF242FE7CF019668
:1042B000272FE4DFE2CFDC01CB01FC01F999FECF2F
:1042C00006C0F2BDE1BDF89A319600B40D9241509E
:1042D0005040B8F70895F894FFCF220622065806FA
:1042E0005806B106CD064A064A06D1063A074607E1
:1042F0004607CE123E13D612A012A412DA12A8124A
:10430000DE12EA12B4123713B812EE12BC12F21215
:104310001A13C012F6122113C612FC120413AC12A7
:10432000E212B012E612CA12001310132A13351348
:104330009A12D2124513D216D816C216CC16DE1611
:10434000E416EA16751F9D1F7F209D1F7F20D01F3A
:08435000F01F7F2044205020E3
:104358002002280850011E0A1401000001009F18BD
:10436800BF199119BA19B519E200E900EA00B500B8
:10437800B600B700CD008301CC008A0192019401F8
:104388002102230224022502260227022A02B30060
:10439800B4006F0070009F01CB019F02A0028182D0
:1043A80083E200E900EA00B500B600B700CD00835B
:1043B80001CC008A019201940121022302240225E2
:1043C80002260227022A02B300B4006F0070009F81
:1043D80001CB019F02A002818283F5F6F7313332C7
:1043E800363534C697669490939291F4447B152E93
:0C43F80004B3039E034A0363037C03002C
:00000001FF
